:10099B008D3CEFB410004003020AA69009ADF82875
:1009AB0028730209DD0209E90209F6020A03020AA9
:1009BB0010020A1D020A29020A35020A41020A4DD7
:1009CB00020A59020A65020A71020A7D020A8902A9
:1009DB000A95751604751710E4FBFA020A9F751633
:1009EB00047517107B017A00020A9F7516047517A0
:1009FB00107B0A7A00020A9F7516047517107B0B81
:100A0B007A00020A9F7516047517107B647A000230
:100A1B000A9F7516047517107B657A00807675161C
:100A2B00047517107B6E7A00806A751604751710A3
:100A3B007B6F7A00805E7516047517107BE87A035E
:100A4B0080527516047517107BE97A03804675166C
:100A5B00047517107BF27A03803A7516047517101C
:100A6B007BF37A03802E7516047517107B4C7A0472
:100A7B0080227516047517107B4D7A048016751637
:100A8B00047517107B567A04800A751604751710B7
:0C0A9B007B577A047D06AF3C120DFE2252
:10122000E4F539120B76AF39120F8205397FF47E5F
:06123000011211EF80F035
:0E129D00759850438920758DFDD28ED2AF22F8
:0812D1008F993099FDC29922AA
:0612E0001212D102128E71
:0512E60034431010016B
:0612D900043100000000DA
:1011D000E4FEEF30E704D2A18002C2A1EF25E0FFD8
:0E11E000D2A430A503430701C2A40EBE08E44A
:0111EE0022DE
:10127E007F027E001211EFC2A3D2A0C2A4D2A2227C
:0C12AB00C2A01211D0E4FF1211D0D2A09A
:0112B7002214
:10124B00C2A01211D0AC07AF051211D0D2A0AF04BF
:01125B002270
:0610FC008B1C8A1D891EF9
:10110200C2A01211D0AD07E4FCECC3951F5017E446
:10111200FF1211D0AB1CAA1DA91E8C82758300EF91
:0A112200120AED0C80E3D2A0AF0525
:01112C0022A0
:0610CA008B288A29892A07
:1010D000C2A01211D0AD07E4FCECC3952B5018ABA5
:1010E00028052AE52AAA297002052914F9120AA757
:0B10F000FF1211D00C80E2D2A0AF056F
:0110FB0022D2
:10101300C2A37BFF7A1279E6752B057F2A1210CAC9
:101023007D017F2112124B7F2212124B7D407F25BF
:1010330012124B7D047F3112124B7D077F26121251
:101043004B7D0F7F2012124BD2A37F057E0002112E
:01105300EFAD
:10115E007F071212AB8F20300620C2A37B007A00CD
:10116E007931751F047F611210FC7DFF7F271212EB
:0B117E004BC2A07FE21211D0D2A022D1
:0D12B800B3B5CEBBD5BCBFD5C7E9BFF600AE
:020D26008F3DFF
:100D2800C280D281E4FFD280C2800FBF05F8C281A1
:100D3800D280C280C281D280C280C281D280C28069
:100D4800E4FFE53D339281D280C280E53D25E0F5A0
:100D58003D0FBF04EDC281E4FFD280C2800FBF0403
:100D6800F87F0A7E001211EFE4FFE53D339281D24D
:100D780080C280E53D25E0F53D0FBF04EDC281E46A
:090D8800FFD280C2800FBF04F805
:010D9100223F
:020D92008F3E92
:100D9400C280D281E4FFD280C2800FBF05F8C28135
:100DA400D280C280D281D280C280C281D280C280ED
:100DB400E4FFE53E339281D280C280E53E25E0F532
:100DC4003E0FBF04EDC281E4FFD280C2800FBF0496
:100DD400F87F0A7E001211EFE4FFE53E339281D2E0
:100DE40080C280E53E25E0F53E0FBF04EDC281E4FC
:090DF400FFD280C2800FBF04F899
:010DFD0022D3
:10112D007F30120D267F0A7E001211EF7F0C120DFB
:10113D00267F0A7E001211EF7F01120D267F0A7E97
:10114D00001211EF7BFF7A1279B87D02E4FF020FD6
:01115D002D64
:100F2D008F358B368A378938ED24FE6010146013A7
:100F3D001460162403701AE53524808010E53524DD
:100F4D0090800AE53524888004E5352498FF120D3C
:100F5D0026AB36AA37A938120AA7FF6017120D92D1
:100F6D007F0A7E001211EF74012538F538E435370C
:050F7D00F53780DD22C4
:060CB2008F2C8A2D8B2E11
:100CB800ED24FE60101460131460162403701AE506
:100CC8002C24808010E52C2490800AE52C24888030
:100CD80004E52C2498FF120D26AE2DAF2E7C007D46
:100CE80064120B21AB07AE2DAF2E7C007D0A120BD0
:100CF800217C007D0A120B218D2FAE2DAF2E7C009A
:100D08007D0A120B218D30EB2430FF120D92E52F56
:0E0D18002430FF120D92E5302430FF020D92C0
:0B12C5000000007F0B7EBEDEFEDFFCA1
:0112D00022FB
:0411EF00AD07AC0696
:1011F300E4FBFAC3EB9DEA9C500A1212C50BBB0039
:04120300010A80EF6D
:0112070022C4
:0412EB0000000022DD
:10123600E4FDFCC3ED9FEC9E500A1212EB0DBD00BF
:04124600010C80EF28
:01124A002281
:0E128E0000007F2B7E067DCBDDFEDEFCDFFA4E
:01129C00222F
:100003000000000000000000002F000000000700B7
:10001300070000147F147F1400242A7F2A12006231
:1000230064081323003649552250000005030000DD
:1000330000001C224100000041221C000014083E65
:1000430008140008083E0808000000A0600000082B
:10005300080808080000606000000020100804027F
:10006300003E5149453E0000427F4000004261513D
:100073004946002141454B31001814127F100027D7
:1000830045454539003C4A4949300001710905039A
:1000930000364949493600064949291E00003636CB
:1000A300000000005636000000081422410000142E
:1000B300141414140000412214080002015109060B
:1000C30000324959513E007C1211127C007F49498C
:1000D3004936003E41414122007F4141221C007FBD
:1000E30049494941007F09090901003E4149497ACB
:1000F300007F0808087F0000417F41000020404145
:100103003F01007F08142241007F40404040007FB0
:10011300020C027F007F0408107F003E4141413EF4
:10012300007F09090906003E4151215E007F09193C
:1001330029460046494949310001017F0101003F39
:100143004040403F001F2040201F003F4038403FB9
:10015300006314081463000708700807006151491D
:10016300454300007F41410000552A552A550000B0
:1001730041417F000004020102040040404040402E
:10018300000001020400002054545478007F4844C6
:10019300443800384444442000384444487F0038FD
:1001A3005454541800087E0901020018A4A4A47C26
:1001B300007F080404780000447D400000408084F0
:1001C3007D00007F102844000000417F4000007C38
:1001D30004180478007C0804047800384444443844
:1001E30000FC242424180018242418FC007C080490
:1001F300040800485454542000043F444020003C69
:100203004040207C001C2040201C003C4030403CEF
:10021300004428102844001CA0A0A07C004464547F
:100223004C441414141414140000000000000000C3
:100233000000000000000000000000F800000000C3
:10024300000000333000000000100C06100C060004
:10025300000000000000000040C07840C07840006B
:10026300043F04043F040400007088FC08300000CD
:10027300001820FF211E0000F008F000E018000025
:1002830000211C031E211E0000F0088870000000DE
:100293001E2123241927211010160E000000000030
:1002A3000000000000000000000000E0180402004D
:1002B300000000071820400000020418E0000000BE
:1002C3000040201807000000404080F080404000BC
:1002D3000202010F01020200000000F00000000012
:1002E3000101011F010101000000000000000000E6
:1002F30080B070000000000000000000000000005B
:1003030000010101010101010000000000000000E3
:10031300003030000000000000000000806018047E
:10032300006018060100000000E010080810E0005B
:10033300000F102020100F00001010F80000000024
:100343000020203F2020000000700808088870006B
:1003530000302824222130000030088888483000EB
:100363000018202020110E000000C02010F800000B
:1003730000070424243F240000F8088888080800A4
:100383000019212020110E0000E0108888180000B9
:10039300000F112020110E0000380808C83808008B
:1003A3000000003F0000000000708808088870000B
:1003B300001C222121221C0000E010080810E0008C
:1003C3000000312222110F00000000C0C000000015
:1003D300000000303000000000000080000000003A
:1003E3000000806000000000000080402010080032
:1003F30000010204081020004040404040404000FB
:1004030004040404040404000008102040800000D5
:100413000020100804020100007048080808F000DA
:100423000000003036010000C030C828E810E000AA
:100433000718272423140B000000C038E000000035
:10044300203C23020227382008F88888887000009F
:10045300203F202020110E00C03008080808380073
:10046300071820202010080008F808080810E000EA
:10047300203F202020100F0008F88888E80810008B
:10048300203F20202320180008F88888E80810005F
:10049300203F200003000000C03008080838000097
:1004A30007182020221E020008F808000008F80898
:1004B300203F210101213F20000808F8080800001F
:1004C3000020203F2020000000000808F808080052
:1004D300C08080807F00000008F888C028180800CA
:1004E300203F20012638200008F808000000000003
:1004F300203F20202020300008F8F800F8F80800FA
:10050300203F003F003F200008F830C00008F808F3
:10051300203F200007183F00E01008080810E00003
:100523000F10202020100F0008F808080808F0001A
:10053300203F210101010000E01008080810E0003D
:100543000F18242438504F0008F8888888887000D2
:10055300203F2000030C3020007088080808380072
:100563000038202121221C00180808F80808180068
:100573000000203F2000000008F808000008F808E9
:10058300001F202020201F000878880000C838089A
:10059300000007380E010000F80800F80008F80012
:1005A300033C0700073C03000818688080681808AC
:1005B30020302C03032C30200838C800C83808002A
:1005C3000000203F2000000010080808C838080079
:1005D3002038262120201800000000FE020202001D
:1005E3000000007F40404000000C30C000000000CD
:1005F300000000010638C00000020202FE000000F5
:10060300004040407F00000000000402020204009A
:1006130000000000000000000000000000000000D7
:1006230080808080808080800002020400000000BF
:1006330000000000000000000000808080800000B7
:100643000019242222223F2008F8008080000000A5
:10065300003F112020110E00000000808080000068
:10066300000E112020201100000000808088F80077
:10067300000E112020103F200000808080800000A9
:10068300001F222222221300008080F0888888180D
:100693000020203F20200000000080808080800018
:1006A300006B94949493600008F8008080800000AD
:1006B300203F210000203F20008098980000000088
:1006C3000020203F202000000000008098980000B8
:1006D30000C08080807F000008F8000080808000D8
:1006E300203F24022D302000000808F800000000FD
:1006F3000020203F202000008080808080808000B8
:10070300203F20003F20003F808000808080000049
:10071300203F210000203F200000808080800000D7
:10072300001F202020201F00808000808000000008
:1007330080FFA12020110E00000000808080800037
:10074300000E112020A0FF80808080008080800028
:1007530020203F2120000100000080808080800055
:100763000033242424241900008080E080800000CA
:100773000000001F20200000808000000080800017
:10078300001F202020103F20808080000080808078
:1007930000010E3008060100808000800080808008
:1007A3000F300C030C300F0000808000808080002D
:1007B3000020312E0E312000808080000080808058
:1007C30080818E7018060100008080808080800008
:1007D3000021302C2221300000000000807C020226
:1007E30000000000003F404000000000FF00000048
:1007F30000000000FF0000000002027C80000000F7
:100803000040403F00000000000601010202040412
:1008130000000000000000000008884828180FE8C6
:100823000808080808080000000000000000000095
:10083300000000000000000008080909090909FF79
:100843000909090909080800000000000000000068
:100853000000000000000000008060F80710901006
:1008630011161010D010000000000000000000005E
:100873000000000000000000010000FF4040415E56
:100883004040704E41404000000000000000000066
:10089300000000000000000000000000000000FF56
:1008A300080808080808080000000000000000000D
:1008B30000000000000000000000FF4141414141F1
:1008C30041414141FF000000000000000000000022
:1008D3000000000000000000100C4424140405066E
:1008E3000404142444140C00000000000000000061
:1008F3000000000000000000004040414141417FF2
:100903004141414140400000000000000000000060
:10091300000000000000000000E000FF10645454D9
:10092300547F545454444000000000000000000071
:100933000000000000000000010000FF0000FF15A0
:10094300151555957F000000000000000000000011
:10095300000000000000000000020CC0007E42C244
:100963004242C2427E00000000000000000000007E
:10097300000000000000000002027F8040201807F2
:1009830000003F40404070000000000000000000F5
:0809930000000000000000005C
:10109100F583E5822CF582E43583F583E493FF7DC6
:0110A100014D
:1010A200ED6004D2858002C285C286E4FEC282EF70
:1010B20030E704D2838002C283D282EF25E0FF0EA2
:0710C200BE08EAD286D285C8
:0110C9002204
:1011B000AC07ED24B0FFE4FD1210A2EC54F0C454CF
:1011C0000F4410FF1210A2EC540F4401FF0210A2B2
:10125C00E4FD7F8D1210A27F141210A27FAF02103A
:01126C00A2DF
:10126D00E4FD7F8D1210A27F101210A27FAE02102E
:01127D00A2CE
:10118900E4FCEC24B0FFE4FD1210A2E4FF1210A26B
:101199007F101210A2E4FB7D01E4FF1210A20BBB29
:0611A90080F50CBC08DC1F
:0111AF00221D
:060E6500AA07A905AF0376
:100E6B00E4FCEF24E0FBEAD3947F4004E4FA0909A5
:100E7B00AF02AD011211B0E4FC75F010EBA42CF530
:100E8B0082E435F0F583E582242BF582E583340289
:100E9B0012109B0CBC08E2AF02E904FD1211B0E486
:100EAB00FC75F010EBA42CF582E435F0F583E582AC
:100EBB002433F582E583340212109B0CBC08E2222A
:041208008F3FA90566
:10120C007F017E00AD0119ED6009AD3F7C00120B32
:03121C000F80F14F
:01121F0022AC
:080DFE008F128D138A148B156E
:100E0600E4F51AF518E518C395165052C3E516957C
:100E16001814FD7F0A121208AC14AD15CFCDCFCE33
:100E2600CCCE120B217C007D0A120B218D19E51AFE
:100E36007013E51614FFE518C39F5009E5197002F3
:100E46008003751A01E517C3138518F0A42512FF50
:0E0E5600E5192430FBAD13120E65051880A7B8
:010E6400226B
:0A1054008F218D228B238A24892529
:10105E00E4F526AB23AA24A92585268275830012E2
:10106E000AC0FB601DAD22AF21120E65740825214A
:10107E00F521D394784007E4F521052205220526B3
:02108E0080D10F
:01109000223D
:040FCC00FF0B7D0298
:040FD000AA07A905BE
:100FD400E4F53B1211B0E4FC75F040EBA4241BF5DE
:100FE40082E5F03408121091053B0CBC10EAAF0204
:100FF400E904FD1211B0E4FC75F040EBA4243BF5C8
:0E10040082E5F03408121091053B0CBC10EA96
:0110120022BB
:040ECB008F088B0AF7
:100ECF00E4F50FF510E50B5407700BE50B13131337
:100EDF00541FF511800AE50B131313541F04F5115A
:100EEF008D11E511C3950B5034AD11AF081211B030
:100EFF00AC08ECC3950A5021AB0CAA0DA90E051036
:100F0F00E510AE0F7002050F14F5828E83120AC022
:0D0F1F00FF7D011210A20C80D9051180C5C4
:010F2C0022A2
:100B7600D2847F647E001211EFC2847F647E0012ED
:100B860011EFD284E4FD7FAE1210A2E4FF1210A290
:100B96007F101210A27F401210A27F811210A27F36
:100BA600CF1210A27FA11210A27FC81210A27FA698
:100BB6001210A27FA81210A27F3F1210A27FD3129A
:100BC60010A2E4FF1210A27FD51210A27F8012108D
:100BD600A27FD91210A27FF11210A27FDA1210A200
:100BE6007F121210A27FDB1210A27F401210A27F8A
:100BF600201210A27F021210A27F8D1210A27F1463
:100C06001210A27FA41210A27FA61210A27FAF120A
:100C160010A27FAF1210A2121189E4FDFF0211B0DB
:100F82008F3AE4FB7D02120FD0E53A2410120FCC07
:100F9200E53A2420120FCCE53A2430120FCCE53A80
:100FA2002440120FCCE53A2450120FCCE53A2460CB
:100FB200FFE4FB7D02120FD0E53A2470120FCCE55C
:0A0FC2003A2480FF0B7D02020FD0DD
:03000000020C26C9
:0C0C2600787FE4F6D8FD75813F020C6D6C
:100AA700BB010689828A83E0225002E722BBFE024D
:090AB700E32289828A83E4932280
:100AC000BB010CE58229F582E5833AF583E02250EB
:100AD00006E92582F8E622BBFE06E92582F8E22235
:0D0AE000E58229F582E5833AF583E493224F
:100AED00F8BB010DE58229F582E5833AF583E8F03F
:100AFD00225006E92582C8F622BBFE05E92582C8EB
:020B0D00F222D2
:100B0F00EF8DF0A4A8F0CF8CF0A428CE8DF0A42EFA
:020B1F00FE22B4
:100B2100BC000BBE0029EF8DF084FFADF022E4CCB8
:100B3100F875F008EF2FFFEE33FEEC33FCEE9DEC81
:100B4100984005FCEE9DFE0FD5F0E9E4CEFD22EDC7
:100B5100F8F5F0EE8420D21CFEADF075F008EF2F11
:100B6100FFED33FD4007985006D5F0F222C398FD02
:050B71000FD5F0EA229F
:100C3200021220E493A3F8E493A34003F68001F2A6
:100C420008DFF48029E493A3F85407240CC8C333C3
:100C5200C4540F4420C8834004F456800146F6DF92
:100C6200E4800B01020408102040809012D9E47E37
:100C7200019360BCA3FF543F30E509541FFEE49387
:100C8200A360010ECF54C025E060A840B8E493A34E
:100C9200FAE493A3F8E493A3C8C582C8CAC583CA79
:100CA200F0A3C8C582C8CAC583CADFE9DEE780BE31
:0112DF00000E
:00000001FF
