:1001E1001202FC1202DDE4F5801200031201678F96
:1001F10018751915751A16751B1712032F12020C93
:0B0201007B007A00791812010480DEF7
:10016700E4F510E50EC4333354C0FFE50FC4333351
:100177003354804FFFE50DC43354E04FFFE50CC403
:1001870054F04FFFE50B33333354F84FFFE50A259F
:10019700E025E04FFFE50925E04F4508F5107F0111
:0701A7007E001202A0AF1060
:0101AE00222E
:1000030030900D7F0A7E0012026E309003E4F508F3
:1000130030910D7F0A7E0012026E309103E4F509E0
:1000230030920D7F0A7E0012026E309203E4F50ACD
:1000330030930D7F0A7E0012026E309303E4F50BBA
:1000430030940D7F0A7E0012026E309403E4F50CA7
:1000530030950D7F0A7E0012026E309503E4F50D94
:1000630030960D7F0A7E0012026E309603E4F50E81
:1000730030970D7F0A7E0012026E309703E4F50F6E
:1000830020900D7F0A7E0012026E209003750801F6
:1000930020910D7F0A7E0012026E209103750901E3
:1000A30020920D7F0A7E0012026E209203750A01D0
:1000B30020930D7F0A7E0012026E209303750B01BD
:1000C30020940D7F0A7E0012026E209403750C01AA
:1000D30020950D7F0A7E0012026E209503750D0197
:1000E30020960D7F0A7E0012026E209603750E0184
:1000F30020970D7F0A7E0012026E209703750F0171
:0101030022D9
:10022F00E4FDFCC3ED9FEC9E5015E4FBFA0BBB0005
:0F023F00010AEB64324A70F50DBD00010C80E43A
:01024E00228D
:0B0317000000007F0B7EBEDEFEDFFC5E
:0103220022B8
:04026E00AD07AC0626
:10027200E4FBFAC3EB9DEA9C500A1203170BBB0086
:04028200010A80EFFE
:010286002255
:04033C00000000229B
:1002B700E4FDFCC3ED9FEC9E500A12033C0DBD000C
:0402C700010C80EFB7
:0102CB002210
:0E02ED0000007F2B7E067DCBDDFEDEFCDFFAFF
:0102FB0022E0
:0402A000AB07AA06F8
:1002A400900000C3E5829BE5839A50061202EDA3F9
:0202B40080F1D7
:0102B6002225
:0E02FC00759850438920758DFDD28ED2AF22A9
:08032F008F993099FDC299225B
:05033700344310100129
:10024F00E4FEEF30E704D2A18002C2A1EF25E0FF68
:0E025F00D2A430A303430701C2A40EBE08E4DC
:01026D00226E
:1002DD007F027E0012026EC2A5D2A0C2A4D2A222BB
:0C030A00C2A012024FE4FF12024FD2A06A
:0103160022C4
:1002CC00C2A012024FAC07AF0512024FD2A0AF046E
:0102DC0022FF
:0601AF008B148A1589166D
:1001B500C2A012024FAD07E4FCECC395175018AB73
:1001C500140516E516AA157002051514F91202870D
:0B01D500FF12024F0C80E2D2A0AF0529
:0101E00022FC
:100104008B108A118912C2A57BFF7A037937751780
:10011400057F301201AF7BFF7A0379377517057FAE
:100124002A1201AFAB10AA11A9127517047FA012ED
:1001340001AF7D017F211202CC7F221202CC7D0A05
:100144007F241202CC7D407F251202CC7D077F26BE
:100154001202CC7D0E7F201202CCD2A57F057E0038
:0301640002026E26
:10020C007F0712030A8F202005033004137DFF7F24
:10021C00271202CCC2A07FE112024FD2A07F002293
:03022C007F01222D
:03000000020323D5
:0C032300787FE4F6D8FD7581200201E12E
:10028700BB010689828A83E0225002E722BBFE0275
:09029700E32289828A83E49322A8
:00000001FF
